:020000040800F2
:10000000D00600206D1C0008210800082308000805
:10001000270800082B0800082F080008000000002F
:10002000000000000000000000000000330800088D
:1000300035080008000000003708000839080008EB
:10004000871C0008871C0008871C0008871C000804
:10005000871C0008871C0008871C0008871C0008F4
:10006000871C0008871C0008871C0008871C0008E4
:10007000871C0008871C0008871C0008871C0008D4
:10008000871C0008871C0008871C0008871C0008C4
:10009000871C0008871C0008871C00089B190008A3
:1000A000871C0008871C0008871C0008871C0008A4
:1000B000871C0008871C0008930F0008871C000895
:1000C000871C0008871C0008871C0008871C000884
:1000D000871C0008831B0008871C0008871C000879
:1000E000871C0008871C0008871C0008871C000864
:1000F000871C0008871C0008871C0008871C000854
:10010000871C0008871C0008871C0008871C000843
:10011000871C0008871C0008DF100008871C0008E7
:10012000871C0008871C0008871C0008871C000823
:1001300000F002F800F03AF80AA090E8000C8244BF
:100140008344AAF10107DA4501D100F02FF8AFF29C
:10015000090EBAE80F0013F0010F18BFFB1A43F0A5
:1001600001031847E4490000044A0000103A24BF84
:1001700078C878C1FAD8520724BF30C830C144BF0C
:1001800004680C607047000000230024002500264E
:10019000103A28BF78C1FBD8520728BF30C148BFEA
:1001A0000B6070471FB51FBD10B510BD03F0DDFD1E
:1001B0001146FFF7F7FF00F009F803F0FBFD03B469
:1001C000FFF7F2FF03BC01F079FC000086B001F0FC
:1001D00007FC01F06DFCFE48006801F082FC00F0B5
:1001E0003BFC00F0F5FC01F04FF9472144F61F609D
:1001F00000F0F0FE44F64301F64803F09DFA01F0EA
:100200001DFA01F0D9F901F0D9FA01F0BBFA41F673
:100210001F4140F2BB2000F08FFE01F02DFBC020FB
:1002200001F02EFB41F61F4142F2107000F02BFF4F
:10023000002000F0BCFECCE2E748007801287DD128
:100240000020E5490870E5484078E5490870E34832
:100250008078E4490870E148C078E3490870DF48D5
:100260000079E2490870E2480078002867D1DD484B
:1002700000780121B1EBD01F14D1DA48007800F0EA
:100280007F0064280EDC0120DA490860DA49C1F8F1
:10029000B401DA49C1F89801D249097801F07F0028
:1002A00001F004FBCF480078C00914D1CD48007894
:1002B00000F07F0064280EDC0020CE490860CE49A3
:1002C000C1F8B401CD49C1F89801C649097801F0D7
:1002D0007F0001F0EBFAC44800780121B1EBD01F98
:1002E00016D1C148007800F07F00642810DCBE48B9
:1002F000007800F07F0000EB800044F6430101EB42
:100300004000BF49088008460188B24803F014FA4B
:10031000B5480078C00919D1B348007800F07F00D3
:10032000642813DCB048007800F07F0000EB800008
:1003300044F64301A1EB4000B14901E012E259E06B
:10034000088008460188A34803F0F6F9A74800781A
:10035000C0F3801018B10120AA49087002E0002003
:10036000A8490870A1480078C0F3401018B10120D6
:10037000A549087002E00020A34908709B48007856
:10038000C0F3001018B10120A049087002E000205D
:100390009E49087095480078C0F3C00018B101204C
:1003A0009B49087002E00020994908708F48007846
:1003B000C0F3800018B101209649087002E00020C7
:1003C0009449087089480078C0F3400018B10120B2
:1003D0009149087002E000208F4908708348007836
:1003E00010F0010F03D001208C49087002E00020BA
:1003F0008A49087020218A4801F0B7FD48B9894828
:10040000007840F0010087490870002078490870A2
:1004100008E08448007820F001008249087001203B
:10042000734908708048007801280FD101027C4888
:1004300001F09BFD012809D17A48007840F00200C4
:100440007849087000207849087005E07548007800
:1004500020F00200734908707448007801280FD119
:1004600041026F4801F081FD012809D16D480078F3
:1004700040F004006B49087000206C49087005E0EA
:100480006848007820F004006649087068480078E1
:1004900001280FD10121674801F067FD012809D12A
:1004A0006048007840F008005E490870002060490C
:1004B000087005E05B48007820F008005949087092
:1004C0005D48007801280FD102215A4801F04DFD06
:1004D000012809D15348007840F0100051490870B4
:1004E00000205549087005E04E48007820F01000C3
:1004F0004C4908705148007801280FD104214D481B
:1005000001F033FD012809D14648007840F0200071
:100510004449087000204949087005E041480078C6
:1005200020F020003F4908704548007801280FD18D
:100530000821404801F019FD012809D13948007807
:1005400040F040003749087000203D49087005E040
:100550003448007820F0400032490870394800786B
:1005600001280FD11021334801F0FFFC012809D1E7
:100570002C48007840F080002A490870002031495A
:10058000087005E02748007820F0800025490870B1
:100590000A21012001F0C2F88346584604F0F4F91C
:1005A000814604F0E3F807464FF06632264B03F02D
:1005B000B3FE054603F008FC0446204604F0D6F8D6
:1005C0000546224A224B03F06BFE45D8002041E04D
:1005D00008000020000400404600002064000020C5
:1005E0000100002002000020030000200400002081
:1005F00000000020B80122420000224200002342F5
:100600000C0000203C0000202D0000202C000020C9
:100610002B0000202A0000202900002028000020B4
:10062000000C01400E0000203200002033000020AA
:100630003400002000180140350000203600002062
:10064000370000203800002066664A3FCDCCCCCC75
:10065000CCCC00405F490870204604F087F805467E
:100660005D4A5E4B03F056FF02D86420594908707A
:10067000204604F07BF80546594A5A4B03F04AFFDE
:1006800032D2204604F072F80546534A534B03F029
:1006900007FE29D2204604F069F80746504A514B1C
:1006A00003F07AFFCDE90201204604F05FF8074627
:1006B000494A4A4B03F064FFCDE90001DDE902231A
:1006C00003F068FC0022484BCDE9040103F0AEFBC7
:1006D00005462A460B460020444903F05BFC814650
:1006E00003F0B0FD3B490870322041490870414891
:1006F000007880F0AA0040490978484035490978D7
:1007000048403B49097848403C490870AA213C4888
:1007100001F0F0FF642001F07CF936480178384898
:1007200001F0E8FF642001F074F93348017834489F
:1007300001F0E0FF642001F06CF9264801783048B0
:1007400001F0D8FF642001F064F9294801782C48B1
:1007500001F0D0FF642001F05CF9284801782848B6
:1007600001F0C8FF2021274801F0FFFBA8B9264867
:100770000078012811D1002024490870244908601C
:100780002449C1F898014FF0320001F065F90020CA
:10079000214908601C4908701BE02021194801F01C
:1007A000E4FB012815D11D480078012811D1174913
:1007B0000870174908601749C1F898014FF03200D6
:1007C00001F04AF90120144908604FF00000134974
:1007D000087031E50F00002085EB51B81E850740F9
:1007E000CDCCCCCCCCCC00400000F03F0000594038
:1007F00010000020010000200E0000201100002049
:1008000000380140000C01403D00002000000020A5
:1008100088012142000021428C0121423E0000203B
:10082000704700BFFEE700BFFEE700BFFEE700BF66
:10083000FEE77047704770477047000000210020B6
:10084000674A126842F48032654B1A6000BF644AFE
:10085000126802F40030491C10B9B1F5A06FF6D14E
:100860005F4A126812F4003F01D0012000E000202E
:10087000012842D15B4A126842F01002594B1A60BB
:100880001A46126822F003021A601A46126842F0F1
:1008900002021A60524A5268514B5A601A46526814
:1008A0005A601A46526842F480625A601A46526888
:1008B00022F47C125A601A46526842F4E8125A60D6
:1008C0001A46126842F080721A6000BF444A1268E9
:1008D00012F0007FFAD0424A526822F00302404BE5
:1008E0005A601A46526842F002025A6000BF3C4AFF
:1008F000526802F00C02082AF9D1704710B5FFF7D0
:100900009DFF10BD10B53648006840F00100344925
:100910000860084640683449084031494860084644
:100920000068324908402E4908600846006820F4F3
:10093000802008600846406820F4FE0048604FF4BC
:100940001F008860FFF7DAFF4FF000602849086059
:1009500010BD10B5002100200022214B5B6803F080
:100960000C0121B1042906D0082928D107E0214B28
:10097000214C236027E01F4B1F4C236023E0184BC2
:100980005B6803F47010164B5B6803F4803202233B
:1009900003EB904022B9194B4343174C23600DE001
:1009A0000F4B5B6813F4003F04D0144B4343124CCD
:1009B000236003E00F4B43430F4C236003E00D4BD8
:1009C0000D4C236000BF00BF054B5B68C3F30313EE
:1009D0000B4CE15C084B1B68CB40074C236010BDFF
:1009E00000100240002002400000FFF8FFFFF6FE6A
:1009F00008ED00E000127A001400002000093D001C
:100A00001800002008B50121302001F0CFFC08209B
:100A1000ADF8000010208DF8030003208DF80200CF
:100A20006946564801F010FA0821544801F0B7FA17
:100A30004FF48050ADF8000010208DF80300032023
:100A40008DF8020069464E4801F0FEF94FF48051DE
:100A50004B4801F0A4FA08BD08B50121342001F08B
:100A6000A5FC0420ADF8000010208DF80300032041
:100A70008DF802006946414801F0E6F904213F483B
:100A800001F08DFA0820ADF8000010208DF8030069
:100A900003208DF802006946384801F0D5F9082195
:100AA000364801F07CFA4FF40060ADF800001020E9
:100AB0008DF8030003208DF802006946314801F0EB
:100AC000C3F94FF400612F4801F069FA4FF48050E8
:100AD000ADF8000010208DF8030003208DF802000F
:100AE0006946284801F0B0F94FF48051254801F0DB
:100AF00056FA0820ADF8000010208DF803000320FE
:100B00008DF8020069461E4801F09EF908211C4834
:100B100001F045FA1020ADF800008DF80300032025
:100B20008DF802006946164801F08EF9102114482C
:100B300001F035FA2020ADF8000010208DF80300F8
:100B400003208DF8020069460D4801F07DF920214F
:100B50000B4801F024FA4020ADF8000010208DF879
:100B6000030003208DF802006946054801F06CF986
:100B70004021034801F013FA08BD000000100140B5
:100B8000001401400008014008B50121342001F0A3
:100B90000DFC2020ADF8000048208DF803006946C8
:100BA000D34801F051F94020ADF8000048208DF8FD
:100BB00003006946CF4801F047F90120ADF8000075
:100BC00028208DF803006946CB4801F03DF908BDA7
:100BD00008B50121482001F0E9FB2020ADF8000014
:100BE00004208DF803006946C44801F02DF94FF444
:100BF0008070ADF8000004208DF803006946BF48FE
:100C000001F022F94FF40070ADF8000004208DF8D7
:100C100003006946B94801F017F90120ADF800005A
:100C200004208DF803006946B54801F00DF9022053
:100C3000ADF8000004208DF803006946B04801F0CB
:100C400003F90420ADF800008DF803006946AC48B4
:100C500001F0FAF80820ADF8000004208DF8030038
:100C60006946A74801F0F0F81020ADF80000042014
:100C70008DF803006946A24801F0E6F808BD10B5FA
:100C8000044614B101209F4908709E48007858B36B
:100C90002021974801F069F950B14021954801F0B1
:100CA00064F928B10121944801F05FF901281BD1B2
:100CB0000A2000F0D1FE00209249087001218E48E0
:100CC00001F053F9012801D1032010BD20218848EB
:100CD00001F04BF908B90120F7E74021854801F000
:100CE00044F9A0B90220F0E70121834801F03DF961
:100CF00068B920217E4801F038F9012807D1402148
:100D00007C4801F032F9012801D17E4908700020A9
:100D1000DBE710B5044614B101207B4908707A481E
:100D2000007880B32021724801F01FF950B14021B2
:100D3000704801F01AF928B101216F4801F015F946
:100D4000012821D1052000F087FE00206E4908709F
:100D50000121694801F009F9012802D16B490870A5
:100D600025E02021624801F000F918B90120684906
:100D700008701CE040215F4801F0F7F8B8B9012085
:100D80006449087013E0FFE701215B4801F0EDF8CA
:100D900068B92021564801F0E8F8012807D1402120
:100DA000544801F0E2F8012801D15749087010BDFC
:100DB00010B5044614B10120574908705648007810
:100DC000002866D04FF480714C4801F0CEF8F8B19D
:100DD0004FF40071494801F0C8F8C8B101214848F2
:100DE00001F0C3F8A0B10221454801F0BEF878B186
:100DF0000421434801F0B9F850B10821404801F0FE
:100E0000B4F828B110213E4801F0AFF8002840D1D5
:100E1000052000F021FE00203F4908704FF480714A
:100E2000364801F0A2F810B901203C4908704FF48F
:100E30000071324801F099F810B901203849087062
:100E400001212F4801F091F810B9012035490870AF
:100E500002212B4801F089F810B9012032490870AD
:100E60000421274801F081F810B901202F490870AA
:100E70000821234801F079F810B901202C490870A5
:100E800010211F4801F071F880BB0120294908702A
:100E90002CE04FF48071194801F067F8012825D142
:100EA0004102164801F061F801281FD101211448C0
:100EB00001F05BF8012819D10221114801F055F821
:100EC000012813D104210E4801F04FF801280DD15B
:100ED00008210B4801F049F8012807D110210848E2
:100EE00001F043F8012801D10B49087010BD000042
:100EF000001001400014014000080140000C0140B6
:100F000000180140390000203A0000202E00002087
:100F10002F000020300000203B0000203200002085
:100F2000330000203400002035000020360000206F
:100F300037000020380000207FB505460C4601210F
:100F4000042001F040FAADF80850ADF8044000204C
:100F5000ADF80A00ADF8060001A9914801F0F4FDD2
:100F6000012211468E4802F066F91E208DF800001D
:100F700002208DF8010003208DF8020001208DF879
:100F80000300684600F097FE0121854802F038F919
:100F90007FBD10B50121824802F0FBFB30B1012179
:100FA0007F4802F007FC0020FFF702FF10BD10B5DC
:100FB00004464CB900217B4802F0B6FB012208210F
:100FC000784802F022FB04E000220821754802F074
:100FD0001CFB10BD30B589B005460C460121092027
:100FE00001F0E4F90121704800F0FDFF0120ADF8A7
:100FF000200018208DF8230003208DF8220008A976
:101000006A4800F021FF0121022001F0DCF9ADF86F
:101010001850ADF814400020ADF81A00ADF81600D5
:1010200005A9604801F090FD6020ADF804000120A2
:10103000ADF806000020ADF80A000220ADF80C0063
:1010400001A9584801F04CFE0120FFF7B0FF08212C
:10105000544802F01BFA0121524802F0D1F9012153
:10106000504802F0CDF809B030BD70B504460D46C9
:1010700004FB05F0642190FBF1F086B2314649484B
:1010800002F05AFB70BD7FB505460C4601211020C9
:1010900001F099F9ADF80850ADF804400020ADF822
:1010A0000A00ADF8060001A9414801F04DFD0122FA
:1010B00041213F4802F0BFF801213D4802F0A0F86D
:1010C00036208DF8000003208DF801008DF8020015
:1010D00001208DF80300684600F0EDFD7FBD10B5DE
:1010E0000121334802F055FB002853D031480078E5
:1010F000012807D13048006808B9012000E000202D
:101100002D4908602D480078012807D12C48006837
:1011100008B9012000E0002029490860294800782A
:10112000012807D12848006808B9012000E0002004
:101130002549086025480078012807D1244800681F
:1011400008B9012000E0002021490860214800780A
:10115000012807D12048006808B9012000E00020DC
:101160001D4908601D480078012807D11C48006807
:1011700008B9012000E000201949086019480078EA
:10118000012807D11848006808B9012000E00020B4
:10119000154908604FF00101054802F00BFB10BD36
:1011A000000800400004004000081A00000C014044
:1011B00000100040280000209881224229000020D1
:1011C000908122422A000020B00121422B00002001
:1011D000948122422C0000208C8122422D0000208C
:1011E000AC0121423C0000209401234208B50121BA
:1011F000082001F0DBF8C020ADF8000048208DF891
:10120000030003208DF8020069469A4800F01CFE96
:10121000C021984800F0C3FEC020ADF800001020A7
:101220008DF8030003208DF802006946914800F014
:101230000BFEC0218F4800F0B2FE08BD10B58D48EE
:10124000006820F070408B4908600846006840F054
:10125000405008600120884908608849C1F8980119
:101260004FF0040000F0D5FB0020834908604FF0E8
:10127000040000F0CEFB00208049C1F8980110BDA9
:1012800010B57C48006820F070407A490860084634
:10129000006840F0405008600020794908607749B4
:1012A000C1F89C014FF0040000F0B3FB0120744929
:1012B00008607249C1F89C014FF0040000F0A9FBDE
:1012C00010BD10B500246B48006820F070406949DB
:1012D00008600846006840F0004008600120664948
:1012E000086000F096FB01206449C1F8980100F005
:1012F00090FB07E0601CC4B2FA2C03DDFFF7C0FFCF
:10130000012010BD5F4800680028F3D15C490860E7
:1013100000BFF6E710B5002059490860554800683D
:1013200020F07040534908600846006840F0405083
:1013300008604FF000005149C1F89C014FF00200D5
:1013400000F067FB01204E4908604FF0020000F0FA
:1013500060FB00204949C1F8980110BD10B500207C
:10136000474908604348006820F0704041490860E0
:101370000846006840F0405008604FF001003F49C7
:10138000C1F89C014FF0020000F043FB01203C49F2
:1013900008604FF0020000F03CFB00203749C1F824
:1013A000980110BD70B504463248006820F07040C6
:1013B000304908600846006840F04050086000204E
:1013C0002F490860054620E0E00903D001202A49A2
:1013D000086002E00020284908604FEA44604FEAB4
:1013E00010644FF0020000F014FB01202449086053
:1013F0004FF0020000F00DFB00202049C1F89801D9
:10140000022000F006FB681CC5B2082DDCDB70BDB5
:1014100070B5054600241748006820F07040154953
:1014200008600846006840F000400860002616E0AA
:101430000020134908604FF0020000F0EAFA012092
:101440000E49C1F898016006040E0E48006808B104
:10145000601CC4B2012000F0DCFA701CC6B2082E79
:10146000E6DB15B9FFF77AFF01E0FFF753FF2046EF
:1014700070BD0000000C01409C812142008021428F
:10148000988121421C81214208B50121542000F09D
:101490008DFF0420ADF8000010208DF8030003201C
:1014A0008DF802006946414800F0CEFC04213F4817
:1014B00000F075FD0820ADF8000010208DF8030045
:1014C00003208DF802006946384800F0BDFC082171
:1014D000364800F064FD2020ADF8000010208DF8A3
:1014E000030003208DF802006946304800F0ACFC90
:1014F00020212E4800F053FD4020ADF800001020C0
:101500008DF8030003208DF802006946274800F09B
:101510009BFC4021254800F042FD4FF40050ADF8FF
:10152000000010208DF8030003208DF802006946AA
:101530001F4800F089FC4FF400511D4800F02FFDBA
:101540004FF48040ADF8000010208DF80300032018
:101550008DF802006946164800F076FC4FF4804191
:10156000134800F01CFD2020ADF8000010208DF87D
:10157000030003208DF8020069460E4800F064FC69
:1015800020210C4800F00BFD4020ADF80000102099
:101590008DF8030003208DF802006946054800F02D
:1015A00053FC4021034800F0FAFC08BD000801404C
:1015B000001001400018014000B587B001214FF430
:1015C000017000F0F3FE4FF4004000F056FE0120E1
:1015D000ADF8040000208DF8070001A9664800F06E
:1015E00033FC664802F0EAF8002002908DF80C0007
:1015F0008DF80D004FF4602004900020059001202C
:101600008DF8180002A95D4802F0FFF801215B483F
:1016100002F027F9594802F046F900BF574802F096
:1016200047F90028FAD1554802F04CF900BF534859
:1016300002F04DF90028FAD107B000BD00B587B01F
:10164000012140F2044000F0B1FE4FF4004000F0F0
:1016500014FE0220ADF8040000208DF8070001A957
:10166000454800F0F1FB464802F0A8F8002002903F
:101670008DF80C008DF80D004FF4602004900020D0
:10168000059001208DF8180002A93D4802F0BDF830
:1016900001213B4802F0E5F8394802F004F900BFA7
:1016A000374802F005F90028FAD1354802F00AF966
:1016B00000BF334802F00BF90028FAD107B000BD93
:1016C00010B504460723012221462C4802F035F9C3
:1016D00001212A4802F005F900BF0221274802F043
:1016E0005BFA0028F9D0254802F08EF910BD10B53C
:1016F0000446072301222146214802F01EF9012158
:101700001F4802F0EEF800BF02211D4802F044FA23
:101710000028F9D01A4802F077F910BD2DE9F04100
:1017200007460C460025002608E03846FFF7DFFF95
:101730000544052000F090F9701CC6B2A642F4DB07
:10174000B5FBF4F080B2BDE8F0812DE9F041074629
:101750000C460025002608E03846FFF7B1FF054497
:10176000052000F079F9701CC6B2A642F4DBB5FB87
:10177000F4F080B2BDE8F08100080140002401408F
:101780000028014008B50121402000F00FFE4FF471
:101790000050ADF8000010208DF8030003208DF8F4
:1017A00002006946044800F04FFB4FF40051024824
:1017B00000F0F7FB08BD00000018014000B585B03F
:1017C0000121042000F0F2FD0121480700F0FBFD9B
:1017D0001020ADF8100000208DF8130003208DF8C4
:1017E000120004A9214800F02FFB10211F4800F02F
:1017F000D6FB0020009001900290022003906946E1
:10180000002002F004FA0121002002F01DFA00215C
:10181000084602F07AFA05B000BD2DE9F04704460B
:10182000204603F0B1F881461149484602F0CAFF4C
:1018300081464FF08B41484603F0BAF8824602F0E9
:1018400095FF07464FF066320A4B02F0A3FB0546B0
:1018500002F0BAFA8146484603F076F885B2294686
:10186000002002F052FABDE8F087000000080140B5
:1018700000007A4466660A4010B5FFF7B7FC10BD59
:1018800010B50446FFF7DAFC5020FFF78BFDFFF799
:1018900018FD2046FFF786FDFFF713FD0020FFF738
:1018A00081FDFFF70EFDFFF7EBFC10BD10B5044600
:1018B000FFF7C4FC5020FFF775FDFFF702FD002085
:1018C000FFF770FDFFF7FDFC2046FFF76BFDFFF70C
:1018D000F8FCFFF7D5FC10BD10B50024FFF7AEFCF7
:1018E0005020FFF75FFDFFF7ECFC0020FFF75AFDEB
:1018F000FFF7E7FCFFF7A2FC5120FFF753FDFFF7CE
:10190000E0FC0020FFF784FD0446FFF7B9FC204609
:1019100010BD10B50024FFF791FC5020FFF742FDE9
:10192000FFF7CFFC8020FFF73DFDFFF7CAFCFFF774
:1019300085FC5120FFF736FDFFF7C3FC0020FFF7C1
:1019400067FD0446FFF79CFC204610BD0EB5012143
:10195000084600F02BFD0521012000F089FB202026
:10196000019000208DF8080010208DF8090001205A
:101970008DF80A0001A800F093FF17208DF80000F1
:1019800002208DF8010003208DF8020001208DF85F
:101990000300684600F08FF90EBD10B50A2000F074
:1019A0005BF8202000F0E2FF012812D12021094835
:1019B00000F0DBFA10B90120074908702021054822
:1019C00000F0D3FA012801D104490870202000F06A
:1019D000DEFF10BD000C01403D0000203E00002055
:1019E00010B56FF0040000F0B1F92D4800682D49E2
:1019F000B0FBF1F02C4908700846007800EB40017C
:101A0000C1EBC0104FF6FF7101EAC0002749088002
:101A100010BD0146244A12784A434FF0E0235A6130
:101A200000229A611A46126942F001021A6100BF4F
:101A30004FF0E022106910F0010F02D010F4803F47
:101A4000F6D04FF0E022126922F001024FF0E023BD
:101A50001A6100229A6170470146144A12884A436B
:101A60004FF0E0235A6100229A611A46126942F04F
:101A700001021A6100BF4FF0E022106910F0010F5F
:101A800002D010F4803FF6D04FF0E022126922F02D
:101A900001024FF0E0231A6100229A6170470000B2
:101AA0001400002000127A004000002042000020B4
:101AB00010B54FF4A06000F0F9F810BD014600BF6A
:101AC000704770B504460D4600BF4021604800F0E5
:101AD0007FFE0028F9D0E1B25D4800F00BFE204601
:101AE00070BD10B586B00446012144F2040000F038
:101AF0005DFC574800F0C2FC4FF40070ADF81400D4
:101B000003208DF8160018208DF8170005A95148FC
:101B100000F09AF94FF48060ADF8140004208DF8BD
:101B2000170005A94B4800F08FF901940020ADF88B
:101B30000800ADF80A00ADF80C00ADF810000C205C
:101B4000ADF80E0001A9424800F0DBFC25208DF81D
:101B5000000000208DF8010003208DF80200012014
:101B60008DF80300684600F0A6F8012240F22551E6
:101B7000374800F05EFD0121354800F04EFD06B00B
:101B800010BD10B540F22551314800F037FE002855
:101B90005DD02F4800F0B2FDC4B2552C14D12E48B0
:101BA000008888B92D48007870B92D482A490988DD
:101BB000445429480088401C274908802948007857
:101BC00060402849087042E023480088002818DD5A
:101BD00025480078401E20490988884211DD1F48A9
:101BE000007870B91E481C49098844541A48008876
:101BF000401C194908801B4800786040194908704A
:101C000025E019480078401E13490988884219D1F7
:101C100012480078B0B912480F4909884454114855
:101C20000078A04208D101200C49087000200A4920
:101C300008800C4908700AE000200749088009491B
:101C4000087004E00020044908800649087010BDAF
:101C500000380140000801404400002046000020F8
:101C60006400002047000020480000200948804709
:101C700009480047FEE7FEE7FEE7FEE7FEE7FEE76E
:101C8000FEE7FEE7FEE7FEE704480549054A064B86
:101C9000704700000509000831010008D00000204D
:101CA000D0060020D0020020D0020020314901439C
:101CB000314A1160704770B5002100230F22C478AB
:101CC0000CB32D4C246804F4E064C4F5E064210AEC
:101CD000C1F10403CA40447804FA03F18478144043
:101CE00021430901254C0678A155047804F01F050D
:101CF0000124AC4005786D114FF0E02606EB850518
:101D0000C5F8004109E0047804F01F050124AC4047
:101D10001B4D0678761145F8264070BD194A0A40D9
:101D20000243154B1B1F1A60704739B1124A121D2E
:101D300012680243104B1B1D1A6006E00E4A121D6A
:101D4000126882430C4B1B1D1A607047042808D18F
:101D50004FF0E021096941F004014FF0E0221161E8
:101D600007E04FF0E021096921F004014FF0E02283
:101D7000116170470000FA050CED00E000E400E09E
:101D800080E100E080FFFF1F10B50446CA4884428E
:101D900008D10121042000F023FB0021042000F0E1
:101DA0001FFB46E0C548844208D10121082000F00D
:101DB00017FB0021082000F013FB3AE0C0488442E2
:101DC00008D10121102000F00BFB0021102000F0B1
:101DD00007FB2EE0BB48844208D10121202000F0FF
:101DE000FFFA0021202000F0FBFA22E0B6488442EE
:101DF00008D10121402000F0F3FA0021402000F03A
:101E0000EFFA16E0B148844208D10121802000F0A9
:101E1000E7FA0021802000F0E3FA0AE0AC488442AF
:101E200007D10121801500F0DBFA0021A01500F098
:101E3000D7FA10BD10B50121084600F0D1FA0021F3
:101E4000012000F0CDFA10BD2DE9F0410246002539
:101E50000026002000230024002791F803C00CF086
:101E60000F0591F803C01CF0100F03D091F802C0C9
:101E70004CEA050591F800C0BCF1000F31D01468A0
:101E800000202BE04FF0010C0CFA00F3B1F800C079
:101E90000CEA03069E4220D183004FF00F0C0CFA8F
:101EA00003F7BC4305FA03FC4CEA040491F803C0B1
:101EB000BCF1280F06D14FF0010C0CFA00FCC2F85F
:101EC00014C00AE091F803C0BCF1480F05D14FF0EF
:101ED000010C0CFA00FCC2F810C0401C0828D1D339
:101EE0001460B1F800C0BCF1FF0F34DD546800206D
:101EF0002EE000F1080C4FF0010808FA0CF3B1F8DD
:101F000000C00CEA03069E4221D183004FF00F0C63
:101F10000CFA03F7BC4305FA03FC4CEA040491F8FD
:101F200003C0BCF1280F05D100F1080C08FA0CF829
:101F3000C2F8148091F803C0BCF1480F07D100F13A
:101F4000080C4FF0010808FA0CF8C2F81080401C89
:101F50000828CED35460BDE8F0814FF6FF710180B0
:101F6000022181700421C1707047024600209368ED
:101F70000B4201D0012000E0002070470146886834
:101F800080B2704702460020D3680B4201D0012086
:101F900000E0002070470146C86880B270470161C8
:101FA0007047416170470AB1016100E041617047CB
:101FB000C16070474FF480320A438261816182615F
:101FC00082698269704702460020424B18684FF6CA
:101FD0008073184040EA021008433E4B1860704777
:101FE0003D49C8617047F0B50A460023002400212E
:101FF000002500F00046B6F1004F02D1354EF169E0
:1020000001E0344E7168C0F3034583B200F440161A
:10201000B6F5401F08D121F070612E4E766826F08B
:1020200070662C4F7E6012E000F48016B6F5801FBB
:1020300006D1032606FA05F4A14341F0706106E0DB
:10204000460D360103FA06F6B14341F0706122B144
:10205000460D360103FA06F6314300F00046B6F1AC
:10206000004F02D11B4EF16101E01A4E7160F0BDCC
:1020700030B500228B071C0F0F2303FA04F2154B17
:1020800008338C1053F824309343124C08348D10CD
:1020900044F8253023468C1053F824308C07240F45
:1020A00000FA04F423430B4C08348D1044F8253017
:1020B00030BD0A490860704700080140000C01402B
:1020C000001001400014014000180140001C0140B4
:1020D000002001400000014000002042DC002042BE
:1020E000DB48006840F00100D949086008464068B4
:1020F000D8490840D649486008460068D649084093
:10210000D34908600846006820F48020086008462B
:10211000406820F4FE0048604FF41F00886070475C
:10212000CB49096821F48031C94A11601146096818
:1021300021F480211160B0F5803F03D0B0F5802FED
:102140000ED106E0C249096841F48031C04A1160ED
:1021500007E0BF49096841F4A021BD4A116000E0D1
:1021600000BF00BF704710B50146002200230020C9
:102170004A11012A02D1B64C236806E0022A02D194
:10218000B34C236A01E0B24C636A01F01F020124E0
:1021900094401C4201D0012000E0002010BD70B529
:1021A00000240025002600BF3120FFF7DCFF064693
:1021B000641CB4F5A06F01D0002EF5D03120FFF7DC
:1021C000D2FF08B1012500E00025284670BD014678
:1021D00000209F4A106820F0F80040EAC10010601B
:1021E00070479E490860704702460020984B586827
:1021F00020F47C1042EA01031843954B5860704765
:1022000096490866704701460020914A506820F0C0
:1022100003000843506070478D48406800F00C0090
:102220007047014600208A4A506820F0F0000843B9
:102230005060704701460020854A506820F4E060F5
:1022400008435060704701460020814A506820F4DE
:10225000605040EAC1005060704729B17C4A527A10
:1022600002437B4B5A7204E0794A527A8243784B9C
:102270005A7270477A490860704701460020744AD4
:10228000506820F440400843506070470021754A70
:1022900011706F4A82F82010012802D0042808D15A
:1022A00003E001216F4A117004E005216D4A1170AD
:1022B00000E000BF00BF70476B4908607047644989
:1022C000096A0143624A11627047674944390860EC
:1022D000704730B500210022002400235C4D6D685A
:1022E00005F00C0121B1042905D0082923D105E00E
:1022F0005E4D056022E05D4D05601FE0544D6D6848
:1023000005F47012524D6D6805F48034022505EB1A
:1023100092421CB9564D554305600BE04C4D6D681B
:1023200015F4003F03D0524D5543056002E04F4D78
:102330005543056002E04D4D056000BF00BF444DB0
:102340006D6805F0F00109094A4D6B5C0568DD40D8
:1023500045603F4D6D6805F4E061090A454D6B5CD1
:102360004568DD4085603A4D6D6805F46051C90AE5
:10237000404D6B5C4568DD40C560354D6D6805F4CA
:102380004041890B3C4D6B5CC568B5FBF3F50561BD
:1023900030BD29B12E4A526902432D4B5A6104E0E7
:1023A0002B4A526982432A4B5A61704729B1284A05
:1023B00092690243264B9A6104E0254A926982435E
:1023C000234B9A61704729B1214AD2690243204BBD
:1023D000DA6104E01E4AD26982431D4BDA6170471C
:1023E00029B11B4AD2680243194BDA6004E0184A4B
:1023F000D2688243164BDA60704729B1144A1269D9
:102400000243134B1A6104E0114A12698243104BD4
:102410001A61704714494039086070470F49C86411
:1024200070470B49C87170470948406A40F0807096
:1024300007494862704701460020054A92680A42EF
:1024400001D0012000E000207047014988727047E8
:10245000001002400000FFF8FFFFF6FE00004242BD
:10246000D8004242201002408004424200127A000A
:1024700000093D00500000206000002010B5044617
:10248000FB48844209D101218803FFF7A9FF0021FD
:102490004FF48040FFF7A4FF32E0F648844209D1B0
:1024A00001214804FFF7A9FF00214FF40030FFF796
:1024B000A4FF25E0F048844209D101218804FFF7F8
:1024C0009CFF00214FF48020FFF797FF18E0EB48B6
:1024D000844209D10121C804FFF78FFF00214FF486
:1024E0000020FFF78AFF0BE0E548844208D1012174
:1024F0000805FFF782FF00214FF48010FFF77DFFF2
:1025000010BD2DE9F04786B005460E460024A246D0
:1025100000BFA1460027B08900B100BF2F462C8A1A
:102520004CF6FF700440F08804432C82AC894EF6D0
:10253000F3100440B088318908437189084304438B
:10254000AC81AC8A4FF6FF400440B0890443AC82B2
:1025500001A8FFF7BEFEC648874202D1DDF810A0F1
:1025600001E0DDF80CA0A88910F4004F08D00AEBB8
:10257000CA0000EB0A1031684900B0FBF1F807E02F
:102580000AEBCA0000EB0A1031688900B0FBF1F8D1
:102590006420B8FBF0F004012009642101FB1089DC
:1025A000A88910F4004F08D0322000EBC900B0FB1E
:1025B000F1F000F00700044308E0322000EB0910BE
:1025C0006421B0FBF1F000F00F0004432C8106B051
:1025D000BDE8F0874FF41651016000218180C18071
:1025E00001810C21418100218181704710B5024693
:1025F0000020108A4FF2FF0318400B884C882343B9
:102600008C882343CC8823431843108210BD0021BB
:10261000018041808180C180704721B1828942F46C
:102620000052828104E082894DF6FF731A40828154
:102630007047F0B503460024002600250020A1F5D0
:1026400010676A3F00D100BF1846C1F3421401F081
:102650001F06012707FA06F5012C01D10C3004E012
:10266000022C01D1103000E014301AB107682F435A
:10267000076002E00768AF430760F0BD1AB1838AC4
:102680000B43838202E0838A8B4383827047028AF2
:102690004FF6F0731A400282028A0A4302827047A0
:1026A00082894FF2FF731A40828182890A438281B4
:1026B000704721B1828942F00202828104E082895E
:1026C0004FF6FD731A4082817047028A4FF6DF731E
:1026D0001A400282028A0A430282704721B1028AAA
:1026E00042F48042028204E0028A4BF6FF731A40F1
:1026F00002827047C1F308028280704701468888D1
:10270000C0F308007047818941F001018181704761
:10271000028BD2B20283028B42EA0122028370470B
:10272000028B02F47F420283028B0A4302837047CA
:1027300021B1828A42F02002828204E0828A4FF62E
:10274000DF731A408282704721B1828A42F0100200
:10275000828204E0828A4FF6EF731A4082827047C9
:1027600021B1828A42F00802828204E0828A4FF616
:10277000F7731A408282704721B1828942F4004285
:10278000828103E08289C2F30E028281704721B107
:10279000828A42F40062828204E0828A4FF2FF73EE
:1027A0001A4082827047828A4FF6FB731A408282F7
:1027B000828A0A438282704721B1828A42F00202F1
:1027C000828204E0828A4FF6FD731A40828270474B
:1027D00002460020B1F5007F00D100BF13880B42F4
:1027E00001D0012000E00020704701F40072B2F532
:1027F000007F00D100BFCA430280704770B5024617
:102800000024002300250020A1F510666A3E00D1B7
:1028100000BFC1F3421501F01F03012606FA03F3BE
:10282000012D02D19689334006E0022D02D1168A8D
:10283000334001E0968A33400C12012606FA04F474
:102840001688344013B10CB1012000E0002070BDA7
:1028500010B500220023A1F510646A3C00D100BF2E
:102860000A1201249440A3B2DC43048010BD00008E
:10287000003801400044004000480040004C004047
:1028800000500040002044490860091D0860091DEF
:102890000860091D086041483F49143108607047CD
:1028A00000213D498279002A3AD00A46126803681D
:1028B0009A430B461A600A1D126803689A430B1D5F
:1028C0001A60027911440A6803681A430A60324A9E
:1028D0000832126803689A432F4B08331A601A1D96
:1028E000126803689A432C4B0C331A604279102A01
:1028F0000ED11A1F126803681A43274B08331A6057
:102900001A1D126803681A43234B0C331A600DE03A
:102910002149427911440A6803681A430A6005E0B4
:10292000027911440A6803689A430A6070470021DB
:10293000016001710C2141710021817170471649BC
:10294000103109680143144A103211607047014682
:102950000020114A143212680A4201D0012000E01E
:10296000002070470C491431086070470146002070
:102970000022094B1B6803EA0102074B14331B6852
:102980000B4202D00AB1012000E00020704702494A
:10299000143108607047000000040140FFFF0F0081
:1029A00010B50446FE48844208D10121C014FFF747
:1029B00017FD0021E014FFF713FDC4E0B4F1804FD0
:1029C00008D101210846FFF718FD00210120FFF77B
:1029D00014FDB8E0F348844208D101210220FFF73A
:1029E0000CFD00210220FFF708FDACE0EE48844218
:1029F00008D101210420FFF700FD00210420FFF78A
:102A0000FCFCA0E0E948844208D101210820FFF73E
:102A1000F4FC00210820FFF7F0FC94E0E448844235
:102A200008D101211020FFF7E8FC00211020FFF75A
:102A3000E4FC88E0DF48844208D101212020FFF730
:102A4000DCFC00212020FFF7D8FC7CE0DA4884423F
:102A500008D101214014FFF7C3FC00216014FFF7E7
:102A6000BFFC70E0D548844209D10121C804FFF7BA
:102A7000B7FC00214FF40020FFF7B2FC63E0D04820
:102A8000844209D101210805FFF7AAFC00214FF477
:102A90008010FFF7A5FC56E0CA48844209D1012105
:102AA0004805FFF79DFC00214FF40010FFF798FC4C
:102AB00049E0C548844208D101214020FFF79DFC30
:102AC00000214020FFF799FC3DE0C048844208D136
:102AD00001218020FFF791FC00218020FFF78DFC71
:102AE00031E0BB48844208D101218015FFF785FC05
:102AF0000021A015FFF781FC25E0B648844209D1EA
:102B000001210804FFF76CFC00214FF48030FFF72F
:102B100067FC18E0B048844209D101214804FFF75E
:102B20005FFC00214FF40030FFF75AFC0BE0AB488C
:102B3000844208D101218804FFF752FC00214FF4A0
:102B40008020FFF74DFC10BD00220288944B984274
:102B50000ED0994B98420BD0B0F1804F08D0914BDA
:102B6000984205D0904B984202D0904B984204D1A5
:102B70004FF68F731A404B881A438D4B984207D0FB
:102B80008C4B984204D04FF6FF431A40CB881A432F
:102B900002808B8883850B880385814B98420BD0FC
:102BA000854B984208D08B4B984205D08A4B98426F
:102BB00002D08A4B984201D10B7A0386012383828B
:102BC000704770B5002400220023058C4FF6FE7676
:102BD00035400584028C8388048B4FF68F752C401A
:102BE000B51E2C400D882C43751E2A400D892A43A2
:102BF0004D882A436A4DA8420BD06F4DA84208D099
:102C0000744DA84205D0744DA84202D0734DA8421D
:102C100013D14FF6F7752A404D892A434FF6FB75BD
:102C20002A408D882A434FF6FF652B404FF6FF550B
:102C30002B408D892B43CD892B4383800483CD8802
:102C40008586028470BD70B5002400220023058CA7
:102C50004FF6EF7635400584028C8388048B48F666
:102C6000FF752C404FF6FF452C400D884FF6FF7640
:102C700006EA05252C434FF6DF752A400D8906EA42
:102C800005152A434D8806EA05152A43444DA842F6
:102C900002D0494DA8421DD14FF67F752A404D897B
:102CA0004FF6FF7606EA05152A434FF6BF752A4010
:102CB0008D8806EA05152A434FF6FF352B404FF263
:102CC000FF752B408D8906EA85052B43CD8906EAE1
:102CD00085052B4383800483CD880587028470BDDE
:102CE00070B5002400220023058C4FF6FF663540A6
:102CF0000584028C8388848B4FF68F752C404FF6A9
:102D0000FC752C400D882C434FF6FF552A400D8949
:102D10004FF6FF7606EA05252A434D8806EA052583
:102D20002A431F4DA84202D0234DA8421DD14FF285
:102D3000FF752A404D894FF6FF7606EA05252A439E
:102D40004FF6FF352A408D8806EA05252A434EF6C0
:102D5000FF752B404DF6FF752B408D8906EA051552
:102D60002B43CD8906EA05152B4383808483CD88C8
:102D70008587028470BD70B5002200230024058C75
:102D80004EF6FF7635400584038C8488828B48F6A6
:102D9000FF752A404FF6FF452A400D8820E00000CD
:102DA000002C01400004004000080040000C0040DE
:102DB000001000400014004000340140004C01406D
:102DC000005001400054014000180040001C004029
:102DD0000020004000400140004401400048014004
:102DE0004FF6FF7606EA05252A434DF6FF752B4080
:102DF0000D8906EA05352B434D8806EA05352B4338
:102E0000FA4DA84202D0FA4DA84208D14BF6FF7500
:102E10002C408D894FF6FF7606EA85152C43848079
:102E20008283CD88A0F84050038470BD828B4FF21E
:102E3000FF331A408283828B4FF6FF7303EA01232C
:102E40001A4382837047F0B50C46154600220021D4
:102E50000026078C4EF6FF7C07EA0C070784828B5E
:102E6000018C4FF6FF7707EA043640F6FF473A40F9
:102E70004FF6FF7707EA05273A434FF6FF7707EA51
:102E800003373A43D94FB8420ED0D94FB8420BD08E
:102E9000B0F1804F08D0D74FB84205D0D64FB842D6
:102EA00002D0D64FB84206D14DF6FF77394046F4EE
:102EB0008057394305E047F6FF57394044F48057BF
:102EC000394382830184F0BD828B4FF6F3731A403D
:102ED0008283828B0A4382837047F0B50C46154685
:102EE000002200210026078C4FF6FF6C07EA0C0732
:102EF0000784828B018C4FF6FF7707EA04264FF692
:102F00000C773A404FF6FF7707EA03172F433A430F
:102F1000B64FB8420ED0B64FB8420BD0B0F1804F8A
:102F200008D0B44FB84205D0B34FB84202D0B34F27
:102F3000B84206D14FF6FF57394046F480773943FF
:102F400005E04FF2FF57394044F4807739438283DC
:102F50000184F0BD028B4FF2FF331A400283028BD3
:102F60004FF6FF7303EA01231A4302837047F0B55B
:102F70000C461546002200210026078C4FF6EF7CF8
:102F800007EA0C070784028B018C4FF6FF7707EAEC
:102F9000041640F6FF473A404FF6FF7707EA03373B
:102FA0003A434FF6FF7707EA05273A438F4FB84277
:102FB0000ED08F4FB8420BD0B0F1804F08D08D4F5C
:102FC000B84205D08C4FB84202D08C4FB84206D1DF
:102FD0004FF6DF77394046F01007394305E04FF6EA
:102FE0005F77394044F01007394302830184F0BD14
:102FF000028B4FF6F3731A400283028B0A4302835B
:103000007047F0B50C46154600220021068C4FF69D
:10301000FE773E400684028B018C4FF60C763240E0
:103020007E1C06EA03162E433243704EB0420ED089
:103030006F4EB0420BD0B0F1804F08D06D4EB04211
:1030400005D06D4EB04202D06C4EB04206D14FF664
:10305000FD76314044F00106314305E04FF6F57648
:10306000314044F00106314302830184F0BD70B564
:1030700005460C465D4885420ED05D4885420BD022
:10308000B5F1804F08D05B48854205D05A4885424B
:1030900002D05A48854200D100E000BF208850B9D4
:1030A0002389A28861882846FFF7ABFFE18828467C
:1030B000FFF79EFF25E0208804280AD12389A288F3
:1030C00061882846FFF753FFE1882846FFF742FF53
:1030D00017E0208808280AD12389A2886188284619
:1030E000FFF7FBFEE1882846FFF7EEFE09E02389A3
:1030F000A28861882846FFF7A6FEE1882846FFF7E8
:1031000095FE70BD2DE9F04105460C4600260127CD
:10311000608808B9022600E00026A088012801D1B5
:10312000022700E001272088A0B92389A2886188AE
:103130002846FFF766FFE1882846FFF759FF2389F5
:103140003A4631462846FFF712FFE1882846FFF746
:1031500001FF13E02389A28861882846FFF707FF53
:10316000E1882846FFF7F6FE23893A46314628468D
:10317000FFF747FFE1882846FFF73AFFBDE8F081F7
:103180000A884B881A438B881A43CB881A430B89C9
:103190001A434B891A438B891A43A0F8442070477D
:1031A0004FF6FF71818000210180C1804180017252
:1031B00070470021018041808180C180018141816F
:1031C0008181C1817047002101804180012181807E
:1031D0000021C180018170470021018041808180F0
:1031E000C18001814181818170470000002C014034
:1031F000003401400004004000080040000C004082
:1032000021B1028842F00102028004E002884FF6F8
:10321000FE731A400280704731B1B0F8442042F486
:103220000042A0F8442005E0B0F84420C2F30E02AA
:10323000A0F8442070471AB183890B43838102E0D0
:1032400083898B43838170478182704741EA0203FF
:10325000A0F8483070471AB183890B43838102E09C
:1032600083898B438381704701894FF6F87211403F
:10327000018170470A46002101894FF68F7319407A
:1032800011430181704730B504460D46294620465A
:10329000FFF7F0FF208940F00700208130BD2DE9C5
:1032A000F04104460D4616461F46602D06D13B46AA
:1032B000012231462046FFF75AFE05E03B46012237
:1032C00031462046FFF79DFE29462046FFF7D2FFF4
:1032D000208940F007002081BDE8F08130B50C4620
:1032E00000210189C9B24FF6FF7505EA0325154390
:1032F00025432943018130BD2DE9F04105460E46A5
:1033000017469846002443463A4631462846FFF77A
:10331000E5FF2C894FF6F870044044F007044FF69F
:103320008F70044044F070042C81BDE8F081F0B54A
:1033300004460D4616461F463B4632462946204661
:10334000FFF7CCFF208940F480402081F0BD01854B
:10335000828270470A46002101884FF68F73194018
:10336000114301807047F0B50C4615461E460021FA
:10337000002200230189028B038C4FF6F877394035
:1033800021434FF6FC473A4040F201173A434FF6CB
:10339000DD773B404FF6FF7707EA06172F433B43A5
:1033A000018102830384F0BD0A460021018B4FF6A0
:1033B0008F7319401143018370470A460021018B26
:1033C00048F6FF7319404FF6FF7303EA02231943CF
:1033D000018370470A460021818B4FF68F73194095
:1033E0001143818370470A460021818B48F6FF73A1
:1033F00019404FF6FF7303EA022319438183704794
:1034000021B1028842F08002028004E002884FF677
:103410007F731A400280704721B1828842F0040213
:10342000828004E082884FF6FB731A4082807047E6
:1034300021B1828842F00802828004E082884FF63F
:10344000F7731A408280704721B1828842F00102EE
:10345000828004E082884FF6FE731A4082807047B3
:103460000A460021018B4FF6F7731940114301837F
:1034700070470A460021018B4FF2FF7319404FF647
:10348000FF7303EA02231943018370470A460021B0
:10349000818B4FF6F77319401143818370470A46B9
:1034A0000021818B4FF2FF7319404FF6FF7303EA3F
:1034B00002231943818370470A460021018B4FF68E
:1034C000FB7319401143018370470A460021018BA9
:1034D0004FF6FF3319404FF6FF7303EA02231943F7
:1034E000018370470A460021818B4FF6FB73194018
:1034F0001143818370470A460021818B4FF6FF33C9
:1035000019404FF6FF7303EA022319438183704782
:103510000A460021018B4FF67F7319401143018346
:1035200070470A460021018BC1F30E014FF6FF736D
:1035300003EA02231943018370470A460021818B65
:103540004FF67F7319401143818370470A4600216B
:10355000818BC1F30E014FF6FF7303EA0223194377
:10356000818370470A460021018C4FF6FD73194094
:103570001143018470470A460021018C4FF6F7730E
:1035800019401143018470470A460021018C4FF60F
:10359000DF7319404FF6FF7303EA021319430184E6
:1035A00070470A460021018C4FF67F7319404FF691
:1035B000FF7303EA02131943018470470A4600218E
:1035C000018C4FF6FF5319404FF6FF7303EA0223B5
:1035D0001943018470470A460021018C4FF2FF73A2
:1035E00019404FF6FF7303EA022319430184704721
:1035F0000A460021018C4DF6FF7319404FF6FF7308
:1036000003EA023319430184704730B500230124D3
:103610008C40A3B2048C9C430484048C02FA01F510
:10362000ADB22C43048430BD30B5002304248C405B
:10363000A3B2048C9C430484048C02FA01F5ADB25D
:103640002C43048430BD70B5034600200024184686
:10365000183001258D40ACB21D8CA5431D8409B1E5
:10366000082909D100EB6100056825F070050560A7
:103670000568154305600EE00D1FC5F34E0528448F
:10368000056825F4E045056005684FF6FF7606EA13
:1036900002263543056070BD21B1028842F0020266
:1036A000028004E002884FF6FD731A4002807047E2
:1036B00021B1028842F00402028004E002884FF641
:1036C000FB731A400280704721B1828842F0800269
:1036D000828004E082884FF67F731A4082807047B0
:1036E00002884FF6F7731A40028002880A4302806C
:1036F000704782884FF68F731A40828082880A430F
:103700008280704702894FF6F8731A40028102895D
:103710000A430281704702894FF67F731A40028183
:1037200002890A430281704781847047818570470E
:10373000818670470187704781877047A0F84010E5
:10374000704702884FF6FF431A40028002880A43FE
:10375000028070470146888E70470146088F704787
:103760000146888F70470146B1F840007047014616
:10377000888C70470146088D704702460020138AE6
:103780000B4201D0012000E000207047CA430282B2
:10379000704730B50246002000230024158A05EA50
:1037A0000103958905EA010413B10CB1012000E081
:1037B000002030BDCA4302827047000010B50446A5
:1037C000F948844208D101214015FEF709FE002185
:1037D0006015FEF705FE17E0F448844208D1012188
:1037E0000015FEF7FDFD00212015FEF7F9FD0BE0A9
:1037F000EF48844208D10121C803FEF7F1FD002102
:103800004FF40040FEF7ECFD10BD30B5024600203D
:1038100000235068E74C20400D790C6844EA0524E9
:10382000204350609068E44C2040D1E902542C437E
:103830004D7944EA450420439060D06A20F470003A
:103840000C7C641EE4B2234340EA0350D06230BDD6
:1038500000210160017141718160C1600121017429
:10386000704721B1826842F00102826003E0826801
:1038700022F001028260704721B1826842F48072B6
:10388000826003E0826822F480728260704710B523
:103890000023CBB21AB144681C43446002E0446880
:1038A0009C43446010BD816841F00801816070470D
:1038B000014600208A6812F0080F01D0012000E0C4
:1038C00000207047816841F0040181607047014623
:1038D00000208A6812F0040F01D0012000E00020CF
:1038E000704721B1826842F4A002826003E08268DE
:1038F00022F4A00282607047014600208A6812F418
:10390000800F01D0012000E00020704710B50A466A
:1039100000210023416821F46041531E41EA4331F4
:10392000416010BD21B1426842F40062426003E090
:10393000426822F4006242607047F0B504460D46CA
:1039400000200021092D11DDE068A5F10A0606EB33
:103950004607072606FA07F18843A5F10A0606EB93
:10396000460603FA06F10843E0600CE0206905EB27
:103970004507072606FA07F1884305EB450603FAD3
:1039800006F108432061072A0FDA606B561E06EB2A
:1039900086071F2606FA07F18843561E06EB8606A1
:1039A00005FA06F10843606322E00D2A0FDA206B66
:1039B000D61F06EB86071F2606FA07F18843D61F97
:1039C00006EB860605FA06F10843206310E0E06A7C
:1039D000A2F10D0606EB86071F2606FA07F18843BB
:1039E000A2F10D0606EB860605FA06F10843E06231
:1039F000F0BD21B1826842F48012826003E08268E7
:103A000022F48012826070470146C86C80B2704711
:103A100065484C300068704721B1426842F48062CA
:103A2000426003E0426822F480624260704721B144
:103A3000426842F48052426003E0426822F48052BD
:103A4000426070470A460021816821F4E041114339
:103A50008160704721B1826842F40042826003E0D5
:103A6000826822F400428260704721B1826842F489
:103A70000212826003E0826822F4021282607047C0
:103A8000014600208A6812F4001F01D0012000E0E6
:103A900000207047F0B5044615460020002200269D
:103AA000092911DDE068A1F10A0707EB470C072798
:103AB00007FA0CF29043A1F10A0707EB470703FA54
:103AC00007F21043E0600CE0206901EB410C07278E
:103AD00007FA0CF2904301EB410703FA07F2104397
:103AE0002061A06BC0F30156EF1C06F1010CA7EB9F
:103AF0000C0707EB870C1F2707FA0CF29043EF1C0B
:103B000006F1010CA7EB0C0707EB870701FA07F298
:103B10001043A063F0BD10B50A4600210023816B5D
:103B200021F44011531E41EA0351816310BD10B5C9
:103B3000002303460B441A6010BD024600231346BF
:103B400001F128000344186880B270470A4600213A
:103B500041681A4B194011434160704741628262CB
:103B600070470A460021416821F01F01114341605E
:103B7000704740B10C490831096841F400010A4A14
:103B80000832116007E008490831096821F4000192
:103B9000054A0832116070470246002013680B4244
:103BA0000ED001200DE0000000240140002801405B
:103BB000003C0140FFFEF0FFFDF7F1FFFFFD3FFF7E
:103BC00000207047CA430260704770B5024600206B
:103BD000002300240B125568CEB205EA06041568CE
:103BE0001D4202D00CB1012000E0002070BD002277
:103BF0000A12D3430360704710B501214807FEF74E
:103C0000FCFB00214FF00050FEF7F7FB10BD30B574
:103C100000220023514C226840F6FE748440A243E7
:103C2000D1E900452C438D682C43CD6844EA050357
:103C300003FA00F42243494C226030BD00210160A8
:103C400041608160C160704739B1444A1268012304
:103C500083401A43414B1A6006E0404A1268012330
:103C600083409A433D4B1A60704741B13B4A12680A
:103C70004FF4805383401A43384B1A6007E0374AA9
:103C800012684FF4805383409A43344B1A60704754
:103C900010B551B1314A121D126804090123A34025
:103CA0001A432E4B1B1D1A6009E02C4A121D126884
:103CB00004090123A3409A43284B1B1D1A6010BD21
:103CC00040B12649091D096841F00301234A121D2C
:103CD000116007E02149091D096821F003011F4A0D
:103CE000121D1160704710B53AB11C4B1B6801FAE8
:103CF00000F42343194C236006E0184B1B6801FABB
:103D000000F4A343154C236010BD0022134A00F1B8
:103D100008031A44116070470022104A00F114038E
:103D20001A441160704730B500240023082802D1DE
:103D300042EA012401E042EA0144084B00F1200577
:103D40002B441C6030BD01460022044A2C2000EBAD
:103D500091000244106880B2704700000074004077
:103D600070477047704770477047754600F028F8F5
:103D7000AE4605006946534620F00700854618B058
:103D800020B5FDF781FFBDE820404FF000064FF061
:103D900000074FF000084FF0000B21F00701AC4680
:103DA000ACE8C009ACE8C009ACE8C009ACE8C0099F
:103DB0008D4670470446AFF300802046FCF7FFF9BC
:103DC000004870477000002021F00042A2F16052CC
:103DD000B2F5801F01F0004328BFD2F17F6C0BD9F0
:103DE0005FEA001C43EAC20242EB507018BF704702
:103DF00028BF20F001007047B2F5801FBCBF1846F5
:103E000070474FEA410C1CF5001F02D2084600F033
:103E100096BE70B500F02AFB00000089FFF7F6BFE0
:103E20004FF00040A0F580007047000010B591EA07
:103E3000030F48BF83F0004300F1B683841A71EB8F
:103E4000030C05D2121943EB0C03001B61EB0C01B0
:103E5000DFF824E14FEA1154A4EB135C1EEA430F90
:103E600018BF9EEA445F73D023EA0E03DCF1200EF4
:103E700021EA045143F4801332D322FA0CFE10EBF2
:103E80000E0023FA0CFE41EB0E01CCF1200E03FADA
:103E90000EFE10EB0E0051F10001B1F5801FCCF1C8
:103EA000200E32D201EB045112FA0EF2BDE810409E
:103EB00058BF7047401C38BF5FEA420218BF7047C6
:103EC000002814BF20F0010041F100014FEA410336
:103ED00013F5001F38BF7047A1F1C04100F014BBBB
:103EE000012A43EB0302ACF1200CDCF11F0E32BFC0
:103EF0004FF0000E23FA0CF310EB030041EB0451DA
:103F0000B4EB115FD0D0A1EB045101F58011490849
:103F10005FEA300001EB04510ED350F1000038BFCE
:103F200012FA0EFE08D1BDE81040C9E7401C38BFA8
:103F30005FEA4202CAD1C3E7BDE810404FEA41033D
:103F400013F5001F38BF7047A1F1C04100F0DCBA83
:103F50009EEA445F08D011EA5E0FBDE8104004BF3E
:103F600001F0004100207047BDE8104070B500F03E
:103F70007DFA00BF64FBBE3E0000E0FF491058BF61
:103F8000C1F140415B1058BFC3F140438B42EFF396
:103F9000008070472DE9C04130B4DFF8A0C23CEA90
:103FA000111418BF3CEA131400F0EC8081EA0305F9
:103FB0001CEA111444EAD57418BF1CEA131500F06A
:103FC000C780A4EB05044FF0004545EAC12145EA4E
:103FD000C32341EA505143EA525304F17F7499429A
:103FE00004F500344FEAC0204FEAC22208BF9042D5
:103FF00000F09C804FEA13650FF24016765D4FEAA1
:10400000134506FB05F7C7F1807706FB07F74FEA74
:10401000D737A7FB03687642C8F58038A7FB06CEE2
:1040200038BFA8F1010807FB08E64FF0000EA6FB19
:10403000028CE6FB03CEDCF1000CCEF1004E38BF63
:10404000AEF1010EA6FB0C584FF000074FF0000533
:10405000E6FB0E87A1FB08C6A0FB07CE16EB0E06FB
:1040600045F10005E1FB076515F1E04E7EBFA4F5C3
:1040700080345FEA46066D4116F1800745F1000580
:104080004FEA17274FEA066647EA0567A6F1DE46BC
:10409000B6F1805F4FEA15251FD9384624F0010C90
:1040A00005EBC471BCF1FE6F01EB0C1102D8F0BC42
:1040B000BDE8008124425CBF01F5801E9EEAC47FFA
:1040C00002D4F0BCBDE80081244238D4F0BCA1F198
:1040D000C041BDE8004100F017BA4FEAD22242EADF
:1040E00043524FEAD323A7FB02864FEAD02040EA8F
:1040F000415007FB03661EEA0E0F4FEAD12105FB74
:10410000026658BFA6EB0056B6EB00564FEA520EB9
:104110004EEAC37E18EB0E0E56EB530EBDD518EBD0
:1041200002085E417F1C55F10005B6E74FF480158B
:104130004FF000074FF000064FF00008ADE7F0BC6D
:104140004FF0000001F1C04101F00041BDE80081E5
:1041500011EA0C1F0CEA131500D00CE013EA0C1F37
:1041600000F025804FF00000F0BC81EA030101F06F
:104170000041BDE80081F0BCBDE8004181EA0301D7
:1041800000F0C2B9F0BCBDE8004170B500F06EF9B6
:10419000097EFC3E00F007B881EA03014FF0000001
:1041A00001F00041704781EA030100F0ADB9F0BCB5
:1041B000BDE800414FF0000021497047FFFDFBF9C9
:1041C000F7F5F4F2F0EEEDEBE9E8E6E4E3E1E0DE4A
:1041D000DDDBDAD8D7D5D4D3D1D0CFCDCCCBCAC8BC
:1041E000C7C6C5C4C2C1C0BFBEBDBCBBBAB9B8B7E3
:1041F000B6B5B4B3B2B1B0AFAEADACABAAA9A8A8D6
:10420000A7A6A5A4A3A3A2A1A09F9F9E9D9C9C9BA3
:104210009A9999989797969595949393929191904E
:104220008F8F8E8E8D8C8C8B8B8A898988888787DF
:104230008685858484838382828181800000FF0754
:104240000000F87F4FEA1153A3F58063D3F11E03FA
:10425000A8BFD3F1200C08DB4FF0004242EAC12294
:1042600052EA505232FA03F0704709420BD4102B35
:10427000C4BF0020704703F5787CBCF1FF3F05D038
:104280004FF0FF3070474FF00000704770B500F0FE
:10429000EDF800BF4992248000207047F0E700004D
:1042A00051EA030C17D41CF5801F58BFBCF5801FC2
:1042B00000F10680994218BF704708BF90427047CE
:1042C00007D711F5801F58BF13F5801F19D49942E5
:1042D0007047894270471CF5801F08D5BCF5801FC8
:1042E000F7D58B4218BF704708BF824270474FF422
:1042F000001C1CEB410F38BF1CEB430F01D28B425B
:10430000704770B500F0B2F8922449004FF00051A8
:104310004FF08053FFF732BEDFF848C170B51CEA9A
:10432000111E1EBF1CEA13159EEA0C0F95EA0C0F16
:1043300000F06F8081EA030423EA4C134EEAD47E36
:1043400021EA4C1141F4801143F48013AE44A1FBE7
:10435000024CA0FB0365AEF17F7E361955EB0C05D0
:10436000A1FB034C4CF10003A0FB021C16EB0C0656
:10437000654153F10003094218BF46F0010613F4EA
:10438000007F0BD14FEA03314FEA0530340341EA95
:10439000155140EA16506FF003020AE04FEAC321BC
:1043A0004FEAC520F40241EA555140EA56506FF0F9
:1043B000020202EB2E4201EB025585EACE710AD0D1
:1043C0005FEA440C18BF24F0004450F1000041F1B2
:1043D000000120EAD47040F2FE7C624500D270BD3C
:1043E000A84214BF4FF080444FF04044002E08BF55
:1043F0000024BEF1806FA8BFA1F1C041BDE87040AC
:1044000080F282804FF0000001F1C04101F00041D4
:1044100070479EEA0C0F0CEA131518BF95EA0C0FB3
:1044200006D04FF0000081EA030E0EF0004170BD8F
:1044300000F01CF88900013E00F007B800F009B850
:104440004FEA430C5FEA5C5C08D081EA030100F0AC
:104450005BB84FEA410C5FEA5C5CF6D14FF00000BC
:10446000014970470000FF070000F87F0EF1020EBF
:104470002EF0030E5EF8046B364205D4012A43EB9E
:10448000030515F5001F12D8012841EB010C1CF59E
:10449000001F0CD80ED14FEAD17C15F5001F0CEB94
:1044A0004C0C0CF1020C08BF4CEBD37C04E04FF039
:1044B000080C01E04FEAD37C0CEB4C0526FA05F61C
:1044C00006F00706B6F1040C06D20EEB860CBDE82A
:1044D00070404CF0010C6047DFE80CF0090B020261
:1044E0004FF000414FF00000A1F5002170BD1946CA
:1044F0001046012851EB010418BFD4F5001484BF05
:10450000002001F0004170BD0808A0F500114FEA3D
:104510003101704753EA010C17D41CF5801F58BFB6
:10452000BCF5801F00F106808B4218BF704708BFA2
:104530008242704707D713F5801F58BF11F5801FBF
:1045400019D48B4270479B4270471CF5801F08D5D9
:10455000BCF5801FF7D5994218BF704708BF90423D
:1045600070474FF4001C1CEB430F38BF1CEB410F8E
:1045700001D2994270470FB40CBC03BCFFF7C1BE17
:1045800091EA030F10B581F000413FF557AC83F07D
:10459000004300F009B8000010B591EA030F48BFCE
:1045A00083F000433FF54AAC841A71EB030C07D249
:1045B00012198CF0004C43EB0C03001B61EB0C0157
:1045C000DFF8A4E14FEA1154A4EB135C1EEA430F99
:1045D00018BF9EEA445F00F0B08023EA6E035242A7
:1045E00021EA0451C3EB6E0338BF5B1EDCF1200EE1
:1045F00025D322FA0CFE10EB0E0043FA0CFE41EB21
:104600000E01CCF1200E03FA0EFE10EB0E0051F15C
:104610000001CCF1200E29D412FA0EF201EB045164
:10462000BDE8104058BF7047401C1CBFB2F1004F9E
:10463000704700280CBF491C20F00100704712EBA6
:10464000020E43EB030218BF4FF0010E4EEA420286
:10465000ACF1200CDCF11E0E54D943FA0CFE10EB29
:104660000E0051F1FF31CCF11E0ED5D50EF1010E29
:1046700012FA0EFE404141EB010101EB445C5FEA9E
:104680005C5C10D910EBDE7001EB045138BFBEF159
:10469000004FBDE8104018BF704700280CBF491CF0
:1046A00020F00100704730D24FEAD42C11F50011F0
:1046B00024F400641BD0B1FA81F20B3AA41AA41EB0
:1046C000D2F12003914030FA03F31943904001EBFB
:1046D000CC71002C01EB0451BDE81040A8BF70471D
:1046E00001F1C0414FF0000001F000417047B0FA05
:1046F00080F310FA03F100D110BDE41A173C48050D
:10470000C90AE4E701EB045110BD491001EB045163
:10471000BDE810404FEA300002E04FF00001704762
:104720004A0008BF0042F8D0B2F5001F28BF70470A
:1047300001F000414FF0000070479EEA445F07D04F
:1047400011EA5E0FBDE8104004BF00210020704751
:10475000BDE8104070B5FFF789FE00BF40DFF63EB0
:1047600083F00041104670470000E0FF43004FEA2D
:10477000D30C4FEA3C0C43401FBF40070CF1605183
:1047800013F0FE4F70471CF0006F03D100200CF0B7
:10479000004170470CF0004343EA507010B540EA06
:1047A000CC0000F086F900BF000000924FEA000143
:1047B000FFF7AABE4FF000414FF00000A1F5002125
:1047C000704700004FF47F0C1CEAD0121EBF1CEA99
:1047D000D11392EA0C0F93EA0C0F00F0858090EA57
:1047E000010F48BF42F4807240F4000C41F4000015
:1047F0002CF07F4120F07F4000B58142A2EB030204
:104800000FF2081CACEB504EC0F100009EF800E027
:104810004FEA4E0E00FB0EFC38BF49004FEA2C1C3D
:1048200002F5FA020CFB0EF34FEACE1E4FEA112CF2
:104830004FEAC1210EEB635E42EB22420EFB0CFC01
:104840004FEA1C5300FB03114FEA112C4FEA0131D0
:104850000EFB0CFC4FEADC4C00FB0C11C14228BFE4
:1048600009184CEB03335DF804EB10EB410143EB0B
:10487000C250B2F57C0F38BF704729D512F0F00F47
:104880001CBF00F1C04000F00040704700818283EF
:104890008485868788898B8C8D8E8F91929395964F
:1048A00097999A9C9D9FA0A2A3A5A7A8AAACAEB0D9
:1048B000B2B3B5B7B9BCBEC0C2C5C7C9CCCED1D4DE
:1048C000D7D9DCDFE2E6E9ECF0F3F7FAFE0000000E
:1048D0004FEA400C0CF1807CBCF17E4F28BF704742
:1048E000B0F1C04000F02BB990EA010F0CEAD113EF
:1048F00048BF42F48072624538BF634507D213F463
:104900007F0F16D080EA010000F00040704710B51C
:1049100000F0CFF8097EFC3E00F005B880EA010007
:1049200000F00040704780EA010000F0004000F015
:1049300006B912F47F0F04BF0248704780EA0100F5
:1049400000F0FDB80000C07FC10DD1F19E0206DB72
:104950004FEA002343F0004323FA02F0704700427D
:1049600007D54FEA4001B1F1FE4F02D24FF00000EF
:10497000704710B500F09DF84992248000207047E0
:104980006FEA200070470000B0FA80F310FA03F2DB
:10499000C3F19D030AD0D90501EB1220530638BF9D
:1049A000704700F1010008BF20F0010070470000CF
:1049B0004FF47F0C1CEAD0121EBF1CEAD11392EAFE
:1049C0000C0F93EA0C0F00F0478090EA010F48BFEC
:1049D00042F480724FF0004C4CEA00204CEA012176
:1049E00002EB0302A0FB0113A2F50002002918BF8D
:1049F00043F001035B0028BF4FEA330342EB22423E
:104A00005FEA132C4CEBC2502EBFBCEB436FB2F5E8
:104A10007C0F70474FEA036CBCF1004F08BF20F0D9
:104A20000100B2F57C0F38BF70470BD582F0FF0252
:104A300012F5803FC8BF704700F1C040D8BF00F0FA
:104A40000040704700F5000C5FEA4C0C48BF70470F
:104A5000B0F1C04000F073B890EA010F0CEAD11336
:104A600048BF42F48072624538BF634504D280EA91
:104A7000010000F00040704710B500F01AF800BFC8
:104A80008900013E00F007B800F009B85FEA410C68
:104A90005FEA1C6C08D080EA010000F050B85FEAC1
:104AA000400C5FEA1C6CF6D14FF00040A0F580008E
:104AB00070470EF1020E2EF0030E5EF8044B2442F6
:104AC00004D44FEA4102B2F17F4F11D84FEA4003BC
:104AD000B3F17F4F0CD80ED14FEAD07CB2F17F4FAB
:104AE0000CEB4C0C0CF1020C08BF4CEBD17C04E03D
:104AF0004FF0080C01E04FEAD17C0CEB4C0324FA98
:104B000003F404F00704B4F1040C06D20EEB840C99
:104B1000BDE810404CF0010C6047DFE80CF00708DE
:104B200002024FF00040A0F5800010BD0846420090
:104B300018BFD2F1807288BF00F0004010BDFF2185
:104B400041EAD050C0057047684B000800000020C3
:104B5000640000006C010008CC4B000864000020D9
:104B60006C06000088010008010000000000000041
:104B700000C20100000000000000000000A24A0482
:104B800000000000000000000102030406070809FD
:104B90000000000000000000000000000000000015
:104BA0000001010100000000000000000000000002
:104BB00006000000000000000000000001020304E5
:0C4BC000010203040607080902040608AD
:0400000508000131BD
:00000001FF
